:100000000C9438000C9455000C9455000C94550039
:100010000C9455000C9455000C9455000C9455000C
:100020000C9455000C9455000C9455000C945500FC
:100030000C9455000C9455000C9455000C945500EC
:100040000C9455000C9455000C9455000C945500DC
:100050000C9455000C9455000C9455000C945500CC
:100060000C9455000C9455000C9455000C945500BC
:1000700011241FBECFEFD4E0DEBFCDBF12E0A0E061
:10008000B1E0E8E9F0E102C005900D92A03AB107B5
:10009000D9F722E0A0EAB2E001C01D92AA3AB20765
:1000A000E1F70E94D9010C944A080C9400000E94C8
:1000B00077026FE08BE40E944A020E94770289EF88
:1000C00090E00197F1F700C0000060E080E20E943C
:1000D0004A0260E081E20E944A0260E081E00E9400
:1000E0004A0261E48AE20E944A0269E889E20E94C7
:1000F0004A0262E088E20E944A0260EA81E30E94CA
:100100004A0260E082E30E944A0263E085E30E94C3
:100110004A026EE186E30E944A0260E187E30E94A0
:100120004A0260E581E40E944A0260E082E40E94A3
:100130004A0268E485E40E944A0261E08BE20E9480
:100140004A0264E08FE00E944A028EE00E94380278
:10015000882321F064E08FE00E944A020895EF9224
:10016000FF920F931F93CF93DF938C010E946B023A
:1001700082FF0CC084FF11C086FD54C00F2EF1E534
:10018000FF2EF02D6894EE24E2F80EC00F2EF1E35E
:10019000FF2EF02DEE24E39407C00F2EF1E4FF2E86
:1001A000F02D6894EE24E1F8F80160817181769574
:1001B000679576956795769567958F2D0E944A028B
:1001C000F80160816295660F607E81E08F0D0E946C
:1001D0004A0260E082E08F0D0E944A0260E083E004
:1001E0008F0D0E944A02F801628184E08F0D0E9407
:1001F0004A02C0E0D0E00AC0F801EC0FFD1F6381A5
:100200008C2F8F0D8B5F0E944A022196F80122816C
:1002100030E0C217D30784F300008E2D0E946002E5
:100220008E2D01C080E0DF91CF911F910F91FF9043
:10023000EF900895FC01A0E0B4E11C9285E08A955E
:10024000F1F78C9180838C91818381E090E0B19B68
:1002500002C080E090E095838483A0E0B4E18C91BB
:1002600082838C91838381E090E0B29902C080E028
:1002700090E09783868381E090E0B39902C080E0AC
:1002800090E0918780878181823318F484E08287AF
:1002900013C08181893C18F083E082870DC0808182
:1002A000823310F4128608C08081893C18F081E006
:1002B000828702C082E08287CF010895EF92FF9289
:1002C0000F931F93CF93DF938AE091E00E94EE0497
:1002D0000E947D047C010E948204C0E0D0E000E026
:1002E00010E020C00E947D04FE01F85E8083208122
:1002F0002817B9F099279F938F931F922F93DF931D
:10030000CF9380E291E09F938F930E94D8040F5F78
:100310001F4F8DB79EB708960FB6F8949EBF0FBEBD
:100320008DBF2196C11598E0D907E0F2C7010E9460
:100330008204C0E0D0E0E12CF12C20C00E947D04BA
:10034000FE01F85E20812817C1F099279F938F93B3
:100350001F922F93DF93CF938AE591E09F938F9322
:100360000E94D8048FEFE81AF80A8DB79EB7089656
:100370000FB6F8949EBF0FBE8DBF2196C11598E0B1
:10038000D907E0F2FF92EF921F930F9387E991E074
:100390009F938F930E94D8040F900F900F900F900F
:1003A0000F900F90DF91CF911F910F91FF90EF90E1
:1003B0000895CF93DF93CDB7DEB72B970FB6F894A0
:1003C000DEBF0FBECDBF80B7806280BF85B78068BB
:1003D00085BF17BA8EE088BB0E94DD020E945E01D5
:1003E0000E9481020E9457008BE090E00E9410035F
:1003F0008C01CE0101960E941A0181E090E0F80183
:100400009183808384E08283898183838A8184834A
:100410008D8185838C81868389811F928F938DE462
:1004200092E09F938F930E94D8048A811F928F93AA
:1004300081EF91E09F938F930E94D8048B851F9248
:100440008F9382E792E09F938F930E94D804C80114
:100450000E94AF001F928F938BE292E09F938F9345
:100460000E94D8040FB6F894DEBF0FBECDBFC1CF37
:10047000CF93C82F88B38F7E88BB83E00E94890208
:100480008C2F0E9489020E948E0298B3906198BBC3
:10049000CF910895CF93DF93D82FC62F88B38F7E47
:1004A00088BB82E00E9489028D2F0E9489028C2FD6
:1004B0000E94890288B3806188BBDF91CF91089543
:1004C000877098B39F7E98BB80680E94890288B32A
:1004D000806188BB089588B38F7E88BB80EA0E94C4
:1004E00089020E948E0298B3906198BB089588B3E8
:1004F0008F7E88BB80EC0E94890288B3806188BBB4
:10050000089580EB87BB81E58DB988B3806188BB96
:1005100008958FB9779BFECF8FB108958FEF8FB974
:10052000779BFECF8FB108955F9BFECF8CB108956E
:100530005D9BFECF8CB90895DC01CB01880F991F1C
:10054000AA1FBB1F880F991FAA1FBB1F9C01AD01CB
:10055000220F331F441F551F220F331F441F551FE7
:1005600060E070E08BE490E00E94EE028FEF820F7B
:1005700089B9DA01C9010197A109B109892F9A2F17
:10058000AB2FBB2780BD8AB188618AB980B58E68E0
:1005900080BD08950F931F93CF938C01C0E003C0DB
:1005A0000E949802CF5FF801EC0FF11D808181114C
:1005B000F7CFCF911F910F91089560E875E280E029
:1005C00090E00E949C028AE892E00E94CA0264E9DC
:1005D00072E088E992E00E948D040895A1E21A2E4B
:1005E000AA1BBB1BFD010DC0AA1FBB1FEE1FFF1FD7
:1005F000A217B307E407F50720F0A21BB30BE40B27
:10060000F50B661F771F881F991F1A9469F760956D
:100610007095809590959B01AC01BD01CF01089527
:100620000F931F93CF93DF938230910510F482E0F4
:1006300090E0E091A202F091A30220E030E0A0E07F
:10064000B0E0309719F14081518102811381481740
:100650005907C8F08417950769F4109731F012967E
:100660000C93129713961C9327C00093A202109329
:10067000A30222C02115310519F04217530718F4BF
:100680009A01BD01EF01DF01F801DBCF2115310532
:10069000F9F0281B390B2430310580F48A819B81C5
:1006A0006115710521F0FB019383828304C090934F
:1006B000A3028093A202FE01329644C0FE01E20F23
:1006C000F31F8193919322503109398328833AC0D3
:1006D0002091A0023091A102232B41F4209102012C
:1006E000309103013093A1022093A00220910001D8
:1006F000309101012115310541F42DB73EB74091EC
:10070000040150910501241B350BE091A002F091EA
:10071000A102E217F307A0F42E1B3F0B281739079D
:1007200078F0AC014E5F5F4F2417350748F04E0F4D
:100730005F1F5093A1024093A0028193919302C046
:10074000E0E0F0E0CF01DF91CF911F910F9108958C
:10075000CF93DF93009709F481C0FC013297138295
:100760001282A091A202B091A302109781F420817D
:100770003181820F931F2091A0023091A10228178E
:10078000390751F5F093A102E093A00267C0ED0193
:1007900020E030E0CE17DF0740F44A815B819E0104
:1007A00041155105F1F0EA01F5CFD383C2834081B1
:1007B0005181840F951FC817D90759F488819981F1
:1007C000840F951F0296918380838A819B819383F6
:1007D00082832115310529F4F093A302E093A2024C
:1007E0003DC0E901FB83EA8349915991C40FD51FAC
:1007F000EC17FD0761F480819181840F951F0296AB
:10080000E90199838883828193819B838A83E0E0D5
:10081000F0E012968D919C911397009719F0FD01CD
:10082000DC01F7CF8D919C9111979D012E5F3F4F79
:10083000820F931F2091A0023091A102281739073F
:1008400069F4309729F41092A3021092A20202C018
:1008500013821282B093A102A093A002DF91CF91E4
:1008600008958F929F92AF92BF92CF92DF92EF92B4
:10087000FF92CF93DF93EC01688179818A819B811C
:10088000611571058105910521F464E279ED8BE52F
:1008900097E02DE133EF41E050E00E94D20749019B
:1008A0005A019B01AC01A7EAB1E40E94F1076B0178
:1008B0007C01ACEEB4EFA50194010E94FF07DC01BE
:1008C000CB018C0D9D1DAE1DBF1DB7FF03C0019751
:1008D000A109B04888839983AA83BB839F77DF915E
:1008E000CF91FF90EF90DF90CF90BF90AF909F900F
:1008F0008F9008950E943104089586E091E00E944F
:1009000031040895A0E0B0E08093060190930701C0
:10091000A0930801B093090108950F931F93CF93FB
:10092000DF93009731F46115710519F480E090E0D0
:100930003AC08B01EC016EE070E081E090E00E9433
:10094000FF06FC01892B91F380E8838301151105D3
:1009500071F01387028781E883838091A4029091CC
:10096000A502892B21F4F093A502E093A40220971D
:10097000C9F0D187C0878381826083838091A6027A
:100980009091A702892B71F4F093A702E093A6023D
:100990008091A8029091A902892B21F4F093A902D9
:1009A000E093A802CF01DF91CF911F910F9108959D
:1009B000A0E0B0E0EEEDF4E00C941408AE014B5F63
:1009C0005F4FFA0161917191AF018091A602909100
:1009D000A7020E941E05E2E00C9430080F931F93BB
:1009E000CF93DF93E091A602F091A702238121FF2C
:1009F0001BC08C01D0E0C0E0F80181918F016091B3
:100A0000A6027091A702DB011896ED91FC9119974F
:100A1000882331F00995892B79F3DFEFCFEFECCF05
:100A20008AE00995892B19F08FEF9FEF02C08D2F77
:100A30009C2FDF91CF911F910F910895ABE0B0E013
:100A4000E4E2F5E00C9404086C017B018A01FC01EE
:100A500017821682838181FFCCC1CE0101963C01B1
:100A6000F6019381F70193FD859193FF81917F01B9
:100A7000882309F4BAC1853239F493FD859193FF37
:100A800081917F01853229F4B60190E00E943807F8
:100A9000E7CF912C212C312CFFE1F315D8F08B32CC
:100AA00079F038F4803279F08332A1F4232D20617B
:100AB0001DC08D3261F0803369F4232D216016C092
:100AC000832D8260382EE32DE4603E2E2AC0F32D64
:100AD000F8601DC037FC2DC020ED280F2A3040F0F3
:100AE0008E32B9F436FC81C1232D2064322E19C018
:100AF00036FE06C08AE0989E200D1124922E11C069
:100B0000EAE02E9E200D1124222EF32DF0623F2EBE
:100B100008C08C3621F4832D8068382E02C08836B8
:100B200041F4F70193FD859193FF81917F0181113C
:100B3000B3CF982F9F7D9554933028F40C5F1F4FAF
:100B40009FE399830DC0833631F0833771F083358D
:100B500009F059C021C0F801808189830E5F1F4FC1
:100B600088248394912C530113C02801F2E04F0E86
:100B7000511CF801A080B18036FE03C0692D70E0E1
:100B800002C06FEF7FEFC5010E942D074C0182016B
:100B9000F32DFF773F2E16C0280122E0420E511C94
:100BA000F801A080B18036FE03C0692D70E002C05C
:100BB0006FEF7FEFC5010E941B074C01F32DF0681A
:100BC0003F2E820133FC1BC0822D90E088169906CF
:100BD000B0F4B60180E290E00E9438072A94F4CF86
:100BE000F50137FC859137FE81915F01B60190E0F8
:100BF0000E94380721102A9421E0821A910881145A
:100C0000910471F7E8C0843611F0893641F5F80196
:100C100037FE07C060817181828193810C5F1F4F15
:100C200008C060817181072E000C880B990B0E5F44
:100C30001F4FF32DFF763F2E97FF09C090958095AB
:100C4000709561957F4F8F4F9F4FF0683F2E2AE040
:100C500030E0A3010E947407882E861845C08537AE
:100C600031F4232D2F7EB22E2AE030E025C0932DC3
:100C7000997FB92E8F36C1F018F4883579F0B5C058
:100C8000803719F0883721F0B0C0E92FE061BE2E1F
:100C9000B4FE0DC0FB2DF460BF2E09C034FE0AC0A7
:100CA000292F2660B22E06C028E030E005C020E1E2
:100CB00030E002C020E132E0F801B7FE07C06081F9
:100CC0007181828193810C5F1F4F06C060817181A9
:100CD00080E090E00E5F1F4FA3010E947407882EF2
:100CE0008618FB2DFF773F2E36FE0DC0232D2E7F5D
:100CF000A22E891458F434FE0BC032FC09C0832D97
:100D00008E7EA82E05C0B82CA32C03C0B82C01C021
:100D1000B92CA4FE0FC0FE01E80DF11D80818033C7
:100D200021F49A2D997EA92E09C0A2FE06C0B39483
:100D3000B39404C08A2D867809F0B394A3FC11C043
:100D4000A0FE06C0B21488F4280C922C9B180EC08A
:100D5000B21460F4B60180E290E00E943807B394C8
:100D6000F7CFB21418F42B1802C0982C212CA4FE33
:100D700010C0B60180E390E00E943807A2FE17C0C1
:100D8000A1FC03C088E790E002C088E590E0B601CE
:100D90000CC08A2D867859F0A1FE02C08BE201C0FA
:100DA00080E2A7FC8DE2B60190E00E94380789142A
:100DB00038F4B60180E390E00E9438079A94F7CFA8
:100DC0008A94F301E80DF11D8081B60190E00E9444
:100DD00038078110F5CF222009F442CEB60180E217
:100DE00090E00E9438072A94F6CFF6018681978119
:100DF00002C08FEF9FEF2B96E2E10C9420080F9337
:100E00001F93CF93DF93869F8001879F100D969F3E
:100E1000100D1124C8010E941003EC01009729F065
:100E2000A80160E070E00E942607CE01DF91CF911B
:100E30001F910F910895FC010590615070400110C1
:100E4000D8F7809590958E0F9F1F0895DC0101C003
:100E50006D9341505040E0F70895FC01615070409F
:100E600001900110D8F7809590958E0F9F1F0895DF
:100E70000F931F93CF93DF93FB01238121FD03C0C9
:100E80008FEF9FEF2CC022FF16C04681578124812F
:100E900035814217530744F4A081B1819D012F5F32
:100EA0003F4F318320838C93268137812F5F3F4FC3
:100EB0003783268314C08B01EC01FB010084F1858C
:100EC000E02D0995892BE1F6D80116968D919C911C
:100ED0001797019617969C938E931697CE01DF91E4
:100EE000CF911F910F910895FA01AA27283051F14F
:100EF000203181F1E8946F936E7F6E5F7F4F8F4F4B
:100F00009F4FAF4FB1E03ED0B4E03CD0670F781FA9
:100F1000891F9A1FA11D680F791F8A1F911DA11D8E
:100F20006A0F711D811D911DA11D20D009F46894C7
:100F30003F912AE0269F11243019305D3193DEF66F
:100F4000CF010895462F4770405D4193B3E00FD025
:100F5000C9F7F6CF462F4F70405D4A3318F0495D10
:100F600031FD4052419302D0A9F7EACFB4E0A695F3
:100F70009795879577956795BA95C9F70097610515
:100F8000710508959B01AC010A2E0694579547956B
:100F900037952795BA95C9F7620F731F841F951F60
:100FA000A01D0895052E97FB1EF400940E94E907EA
:100FB00057FD07D00E94EE0207FC03D04EF40C94BC
:100FC000E90750954095309521953F4F4F4F5F4F22
:100FD000089590958095709561957F4F8F4F9F4FA5
:100FE00008950E943B08A59F900DB49F900DA49F6B
:100FF000800D911D11240895B7FF0C94F1070E94F4
:10100000F107821B930B08952F923F924F925F92AC
:101010006F927F928F929F92AF92BF92CF92DF9208
:10102000EF92FF920F931F93CF93DF93CDB7DEB76D
:10103000CA1BDB0B0FB6F894DEBF0FBECDBF099401
:101040002A88398848885F846E847D848C849B8458
:10105000AA84B984C884DF80EE80FD800C811B8166
:10106000AA81B981CE0FD11D0FB6F894DEBF0FBE95
:10107000CDBFED010895A29FB001B39FC001A39F12
:10108000700D811D1124911DB29F700D811D1124C1
:08109000911D0895F894FFCFB3
:101098000000AA0220000100000053746172746904
:1010A8006E67205352414D20746573742E2E2E00A6
:1010B8005772697465207068617365206572726F14
:1010C800723A206578745F72616D5B2534645D20C7
:1010D8003D2025303258202873686F756C64206273
:1010E800652025303258290A2000526574726965D6
:1010F80076616C207068617365206572726F723AF0
:10110800206578745F72616D5B2534645D203D20D5
:1011180025303258202873686F756C64206265200A
:1011280025303258290A005352414D207465737492
:1011380020636F6D706C65746564207769746820CE
:101148000A20253464206572726F727320696E20DC
:10115800777269746520706861736520616E640ACE
:1011680020253464206572726F727320696E207254
:10117800657472696576616C2070686173650A0AC6
:10118800004A6F79737469636B20792D617869738C
:10119800206469676974616C20696E7075742025B4
:1011A80064200A00536C69646572203120646967A1
:1011B8006974616C20696E707574202564200A005A
:1011C800536C696465722032206469676974616C64
:1011D80020696E707574202564200A0A000A204A66
:1011E8006F79737469636B20782D617869732064F3
:1011F80069676974616C20696E7075742025642054
:101208000A006A6F79737469636B20706F7369740D
:10121800696F6E202564200A0A000A092055415288
:101228005420696E697469616C697A65642000008C
:00000001FF
