S01700004763634170706C69636174696F6E312E737265635B
S11300000C9438000C9455000C9455000C94550035
S11300100C9455000C9455000C9455000C94550008
S11300200C9455000C9455000C9455000C945500F8
S11300300C9455000C9455000C9455000C945500E8
S11300400C9455000C9455000C9455000C945500D8
S11300500C9455000C9455000C9455000C945500C8
S11300600C9455000C9455000C9455000C945500B8
S113007011241FBECFEFD4E0DEBFCDBF12E0A0E05D
S1130080B1E0E0E4F1E102C005900D92A43AB107B9
S1130090D9F722E0A4EAB2E001C01D92AE3AB20759
S11300A0E1F70E9402020C949E080C9400000E9446
S11300B0BF026FE08BE40E9476020E94BF0289EFC8
S11300C090E00197F1F700C0000060E080E20E9438
S11300D0760260E081E20E94760260E081E00E94A4
S11300E0760267E08AE20E94760260E989E20E9471
S11300F0760262E088E20E94760260EA81E30E946E
S1130100760260E082E30E94760263E085E30E9467
S113011076026EE186E30E94760260E187E30E9444
S1130120760260E581E40E94760260E082E40E9447
S1130130760268E485E40E94760261E08BE20E9424
S1130140760264E48FE00E9476028EE00E946402EC
S113015064E48FE00E9476020895EF92FF920F9379
S11301601F93CF93DF938C010E94970282FF0CC0F0
S113017084FF11C086FD54C00F2EF1E5FF2EF02D33
S11301806894EE24E2F80EC00F2EF1E3FF2EF02D5A
S1130190EE24E39407C00F2EF1E4FF2EF02D6894B3
S11301A0EE24E1F8F8016081718176956795769582
S11301B06795769567958F2D0E947602F801608188
S11301C06295660F607E81E08F0D0E94760260E08A
S11301D082E08F0D0E94760260E083E08F0D0E9422
S11301E07602F801628184E08F0D0E947602C0E0FD
S11301F0D0E00AC0F801EC0FFD1F63818C2F8F0D36
S11302008B5F0E9476022196F801228130E0C217AA
S1130210D30784F300008E2D0E948C028E2D01C022
S113022080E0DF91CF911F910F91FF90EF9008959F
S1130230BF92CF92DF92EF92FF920F931F93CF93CF
S1130240DF938C010E94C9027C016C0180E4C82206
S1130250DD24E6FC08C0EE200CF04EC00F2EF1E7C2
S1130260BF2EF02D04C00F2EF1E6BF2EF02D8B2DE6
S11302700E94640290E0880F991F880F991F880FCD
S1130280991FF8019183808381E08B0D0E946402A1
S1130290282F229526952770F80180819181822B41
S11302A09183808384E08B0D0E946402F801828331
S11302B0C0E0D0E00AC08C2F8B0D8B5F0E946402DB
S11302C0F801EC0FFD1F83832196F801228130E0B1
S11302D0C217D30784F3CD2831F040E062E08CE20A
S11302E00E94A30205C040E064E08CE20E94A302E5
S11302F08E2D87708F5F01C080E0DF91CF911F91B9
S11303000F91FF90EF90DF90CF90BF900895EF9200
S1130310FF920F931F93CF93DF938AE091E00E94A3
S113032042050E94D1047C010E94D604C0E0D0E0C2
S113033000E010E020C00E94D104FE01F85E80833A
S113034020812817B9F099279F938F931F922F9399
S1130350DF93CF9380E291E09F938F930E942C05CB
S11303600F5F1F4F8DB79EB708960FB6F8949EBFC8
S11303700FBE8DBF2196C11598E0D907E0F2C701E1
S11303800E94D604C0E0D0E0E12CF12C20C00E94F1
S1130390D104FE01F85E20812817C1F099279F93AC
S11303A08F931F922F93DF93CF938AE591E09F93CE
S11303B08F930E942C058FEFE81AF80A8DB79EB729
S11303C008960FB6F8949EBF0FBE8DBF2196C11537
S11303D098E0D907E0F2FF92EF921F930F9387E919
S11303E091E09F938F930E942C050F900F900F9094
S11303F00F900F900F90DF91CF911F910F91FF906D
S1130400EF900895CF93DF9380B7806280BF85B764
S1130410806885BF17BA8EE088BB0E9431030E94B2
S113042087010E94D5020E9457008BE090E00E9451
S113043064032BE730E0FC013183208328E022832E
S1130440DC01139626E0E0E7F2E001900D922A9594
S1130450E1F70E94AD0081EE94E00197F1F700C04E
S113046000008BE090E00E946403EC018DE390E0D7
S11304709983888386E08A83CE010E94180189814A
S11304808F9388818F9386E792E09F938F930E9446
S11304902C058A811F928F9380E892E09F938F931B
S11304A00E942C052396DF93CF930E942C058DB7D1
S11304B09EB70A960FB6F8949EBF0FBE8DBF80E01C
S11304C090E0DF91CF910895CF93C82F88B38F7EAA
S11304D088BB83E00E94DD028C2F0E94DD020E9413
S11304E0E20298B3906198BBCF910895CF93DF93C4
S11304F0D82FC62F88B38F7E88BB82E00E94DD028E
S11305008D2F0E94DD028C2F0E94DD0288B3806152
S113051088BBDF91CF910895877098B39F7E98BB75
S113052080680E94DD0288B3806188BB089588B327
S11305308F7E88BB80EA0E94DD020E94E20298B3AB
S1130540906198BB08951F93CF93DF93182FD62FF4
S1130550C42F88B38F7E88BB85E00E94DD02812F83
S11305600E94DD028D2F0E94DD028C2F0E94DD028D
S113057088B3806188BBDF91CF911F91089588B3C0
S11305808F7E88BB80EC0E94DD0288B3806188BBCB
S1130590089588B38F7E88BB80EB0E94DD020E94A1
S11305A0E20298B3906198BB089580EB87BB81E524
S11305B08DB988B3806188BB08958FB9779BFECFCE
S11305C08FB108958FEF8FB9779BFECF8FB10895C8
S11305D05F9BFECF8CB108955D9BFECF8CB90895CF
S11305E0DC01CB01880F991FAA1FBB1F880F991F1D
S11305F0AA1FBB1F9C01AD01220F331F441F551FAF
S1130600220F331F441F551F60E070E08BE490E01D
S11306100E9442038FEF820F89B9DA01C901019761
S1130620A109B109892F9A2FAB2FBB2780BD8AB1AD
S113063088618AB980B58E6880BD08950F931F9331
S1130640CF938C01C0E003C00E94EC02CF5FF8019D
S1130650EC0FF11D80818111F7CFCF911F910F9184
S1130660089560E875E280E090E00E94F0028EE870
S113067092E00E941E0368EE72E08CEE92E00E940B
S1130680E1040895A1E21A2EAA1BBB1BFD010DC0B3
S1130690AA1FBB1FEE1FFF1FA217B307E407F5072E
S11306A020F0A21BB30BE40BF50B661F771F881F0A
S11306B0991F1A9469F760957095809590959B01A0
S11306C0AC01BD01CF0108950F931F93CF93DF9326
S11306D08230910510F482E090E0E091A602F0915E
S11306E0A70220E030E0A0E0B0E0309719F14081AB
S11306F051810281138148175907C8F0841795075F
S113070069F4109731F012960C93129713961C9378
S113071027C00093A6021093A70222C02115310519
S113072019F04217530718F49A01BD01EF01DF01D4
S1130730F801DBCF21153105F9F0281B390B2430E2
S1130740310580F48A819B816115710521F0FB01DB
S11307509383828304C09093A7028093A602FE0130
S1130760329644C0FE01E20FF31F8193919322500D
S11307703109398328833AC02091A4023091A5021B
S1130780232B41F420910201309103013093A502FF
S11307902093A4022091000130910101211531051B
S11307A041F42DB73EB74091040150910501241B3B
S11307B0350BE091A402F091A502E217F307A0F42F
S11307C02E1B3F0B2817390778F0AC014E5F5F4FA3
S11307D02417350748F04E0F5F1F5093A50240932E
S11307E0A4028193919302C0E0E0F0E0CF01DF9195
S11307F0CF911F910F910895CF93DF93009709F440
S113080081C0FC01329713821282A091A602B0919A
S1130810A702109781F420813181820F931F2091C8
S1130820A4023091A5022817390751F5F093A502C7
S1130830E093A40267C0ED0120E030E0CE17DF07AB
S113084040F44A815B819E0141155105F1F0EA01B2
S1130850F5CFD383C28340815181840F951FC8177C
S1130860D90759F488819981840F951F0296918341
S113087080838A819B81938382832115310529F4A6
S1130880F093A702E093A6023DC0E901FB83EA834B
S113089049915991C40FD51FEC17FD0761F480816C
S11308A09181840F951F0296E9019983888382813F
S11308B093819B838A83E0E0F0E012968D919C9172
S11308C01397009719F0FD01DC01F7CF8D919C91EE
S11308D011979D012E5F3F4F820F931F2091A40219
S11308E03091A5022817390769F4309729F410923A
S11308F0A7021092A60202C013821282B093A5022C
S1130900A093A402DF91CF9108958F929F92AF920A
S1130910BF92CF92DF92EF92FF92CF93DF93EC01DD
S1130920688179818A819B816115710581059105B1
S113093021F464E279ED8BE597E02DE133EF41E0BA
S113094050E00E94260849015A019B01AC01A7EA24
S1130950B1E40E9445086B017C01ACEEB4EFA50143
S113096094010E945308DC01CB018C0D9D1DAE1D2A
S1130970BF1DB7FF03C00197A109B04888839983BD
S1130980AA83BB839F77DF91CF91FF90EF90DF9095
S1130990CF90BF90AF909F908F9008950E94850450
S11309A0089586E091E00E9485040895A0E0B0E0F7
S11309B08093060190930701A0930801B093090165
S11309C008950F931F93CF93DF93009731F461152C
S11309D0710519F480E090E03AC08B01EC016EE0FF
S11309E070E081E090E00E945307FC01892B91F3B1
S11309F080E883830115110571F01387028781E86C
S1130A0083838091A8029091A902892B21F4F09309
S1130A10A902E093A8022097C9F0D187C0878381F7
S1130A20826083838091AA029091AB02892B71F436
S1130A30F093AB02E093AA028091AC029091AD02D4
S1130A40892B21F4F093AD02E093AC02CF01DF9146
S1130A50CF911F910F910895A0E0B0E0E2E3F5E09B
S1130A600C946808AE014B5F5F4FFA01619171917C
S1130A70AF018091AA029091AB020E947205E2E05C
S1130A800C9484080F931F93CF93DF93E091AA02F1
S1130A90F091AB02238121FF1BC08C01D0E0C0E0A8
S1130AA0F80181918F016091AA027091AB02DB0180
S1130AB01896ED91FC911997882331F00995892BAB
S1130AC079F3DFEFCFEFECCF8AE00995892B19F0AA
S1130AD08FEF9FEF02C08D2F9C2FDF91CF911F913D
S1130AE00F910895ABE0B0E0E8E7F5E00C94580806
S1130AF06C017B018A01FC0117821682838181FFCC
S1130B00CCC1CE0101963C01F6019381F70193FD1E
S1130B10859193FF81917F01882309F4BAC18532BD
S1130B2039F493FD859193FF81917F01853229F4F6
S1130B30B60190E00E948C07E7CF912C212C312C38
S1130B40FFE1F315D8F08B3279F038F4803279F084
S1130B508332A1F4232D20611DC08D3261F08033D6
S1130B6069F4232D216016C0832D8260382EE32D75
S1130B70E4603E2E2AC0F32DF8601DC037FC2DC062
S1130B8020ED280F2A3040F08E32B9F436FC81C1B2
S1130B90232D2064322E19C036FE06C08AE0989EAA
S1130BA0200D1124922E11C0EAE02E9E200D112456
S1130BB0222EF32DF0623F2E08C08C3621F4832DB3
S1130BC08068382E02C0883641F4F70193FD859180
S1130BD093FF81917F018111B3CF982F9F7D95540D
S1130BE0933028F40C5F1F4F9FE399830DC0833625
S1130BF031F0833771F0833509F059C021C0F80111
S1130C00808189830E5F1F4F88248394912C530124
S1130C1013C02801F2E04F0E511CF801A080B180EE
S1130C2036FE03C0692D70E002C06FEF7FEFC5018F
S1130C300E9481074C018201F32DFF773F2E16C0DD
S1130C40280122E0420E511CF801A080B18036FE3A
S1130C5003C0692D70E002C06FEF7FEFC5010E94F1
S1130C606F074C01F32DF0683F2E820133FC1BC04B
S1130C70822D90E088169906B0F4B60180E290E0E7
S1130C800E948C072A94F4CFF50137FC859137FE36
S1130C9081915F01B60190E00E948C0721102A9493
S1130CA021E0821A91088114910471F7E8C0843616
S1130CB011F0893641F5F80137FE07C06081718172
S1130CC0828193810C5F1F4F08C060817181072E60
S1130CD0000C880B990B0E5F1F4FF32DFF763F2EF0
S1130CE097FF09C090958095709561957F4F8F4FC0
S1130CF09F4FF0683F2E2AE030E0A3010E94C8070E
S1130D00882E861845C0853731F4232D2F7EB22EC8
S1130D102AE030E025C0932D997FB92E8F36C1F09B
S1130D2018F4883579F0B5C0803719F0883721F088
S1130D30B0C0E92FE061BE2EB4FE0DC0FB2DF460FF
S1130D40BF2E09C034FE0AC0292F2660B22E06C069
S1130D5028E030E005C020E130E002C020E132E0CC
S1130D60F801B7FE07C060817181828193810C5FB5
S1130D701F4F06C06081718180E090E00E5F1F4FBD
S1130D80A3010E94C807882E8618FB2DFF773F2EEB
S1130D9036FE0DC0232D2E7FA22E891458F434FE66
S1130DA00BC032FC09C0832D8E7EA82E05C0B82C42
S1130DB0A32C03C0B82C01C0B92CA4FE0FC0FE01A3
S1130DC0E80DF11D8081803321F49A2D997EA92E9E
S1130DD009C0A2FE06C0B394B39404C08A2D8678D9
S1130DE009F0B394A3FC11C0A0FE06C0B21488F4A9
S1130DF0280C922C9B180EC0B21460F4B60180E249
S1130E0090E00E948C07B394F7CFB21418F42B1817
S1130E1002C0982C212CA4FE10C0B60180E390E0FF
S1130E200E948C07A2FE17C0A1FC03C088E790E0D3
S1130E3002C088E590E0B6010CC08A2D867859F08E
S1130E40A1FE02C08BE201C080E2A7FC8DE2B601E4
S1130E5090E00E948C07891438F4B60180E390E096
S1130E600E948C079A94F7CF8A94F301E80DF11D40
S1130E708081B60190E00E948C078110F5CF22207A
S1130E8009F442CEB60180E290E00E948C072A94D5
S1130E90F6CFF6018681978102C08FEF9FEF2B96E4
S1130EA0E2E10C9474080F931F93CF93DF93869F12
S1130EB08001879F100D969F100D1124C8010E9478
S1130EC06403EC01009729F0A80160E070E00E943F
S1130ED07A07CE01DF91CF911F910F910895FC0104
S1130EE00590615070400110D8F7809590958E0F51
S1130EF09F1F0895DC0101C06D9341505040E0F7FD
S1130F000895FC016150704001900110D8F780955C
S1130F1090958E0F9F1F08950F931F93CF93DF9388
S1130F20FB01238121FD03C08FEF9FEF2CC022FF23
S1130F3016C046815781248135814217530744F4F2
S1130F40A081B1819D012F5F3F4F318320838C931A
S1130F50268137812F5F3F4F3783268314C08B014F
S1130F60EC01FB010084F185E02D0995892BE1F664
S1130F70D80116968D919C911797019617969C937C
S1130F808E931697CE01DF91CF911F910F91089503
S1130F90FA01AA27283051F1203181F1E8946F93A6
S1130FA06E7F6E5F7F4F8F4F9F4FAF4FB1E03ED04C
S1130FB0B4E03CD0670F781F891F9A1FA11D680FEA
S1130FC0791F8A1F911DA11D6A0F711D811D911D1D
S1130FD0A11D20D009F468943F912AE0269F112492
S1130FE03019305D3193DEF6CF010895462F4770F6
S1130FF0405D4193B3E00FD0C9F7F6CF462F4F7051
S1131000405D4A3318F0495D31FD4052419302D0AE
S1131010A9F7EACFB4E0A695979587957795679554
S1131020BA95C9F700976105710508959B01AC0154
S11310300A2E06945795479537952795BA95C9F77B
S1131040620F731F841F951FA01D0895052E97FB23
S11310501EF400940E943D0857FD07D00E944203ED
S113106007FC03D04EF40C943D0850954095309500
S113107021953F4F4F4F5F4F089590958095709500
S113108061957F4F8F4F9F4F08950E948F08A59FB2
S1131090900DB49F900DA49F800D911D112408956F
S11310A0B7FF0C9445080E944508821B930B0895D2
S11310B02F923F924F925F926F927F928F929F9264
S11310C0AF92BF92CF92DF92EF92FF920F931F9352
S11310D0CF93DF93CDB7DEB7CA1BDB0B0FB6F89403
S11310E0DEBF0FBECDBF09942A88398848885F8443
S11310F06E847D848C849B84AA84B984C884DF80B4
S1131100EE80FD800C811B81AA81B981CE0FD11D97
S11311100FB6F894DEBF0FBECDBFED010895A29FB8
S1131120B001B39FC001A39F700D811D1124911DB7
S1131130B29F700D811D1124911D0895F894FFCF65
S11311400000AE0220000100000053746172746953
S11311506E67205352414D20746573742E2E2E00F9
S11311605772697465207068617365206572726F67
S1131170723A206578745F72616D5B2534645D201A
S11311803D2025303258202873686F756C642062C6
S1131190652025303258290A200052657472696529
S11311A076616C207068617365206572726F723A43
S11311B0206578745F72616D5B2534645D203D2029
S11311C025303258202873686F756C64206265205E
S11311D025303258290A005352414D2074657374E6
S11311E020636F6D706C6574656420776974682022
S11311F00A20253464206572726F727320696E2030
S1131200777269746520706861736520616E640A21
S113121020253464206572726F727320696E2072A7
S1131220657472696576616C2070686173650A0A19
S1131230004A6F79737469636B20782D61786973E0
S1131240206469676974616C20696E707574202507
S113125064200A004A6F79737469636B20792D6185
S1131260786973206469676974616C20696E70754C
S113127074202564200A00536C696465722031204F
S11312806469676974616C20696E70757420256483
S1131290200A00536C6964657220322064696769AE
S11312A074616C20696E707574202564200A0A00CC
S11312B048656C6C6F0069642069732025640A00BA
S11312C06C656E6774682069732025640A000A09D6
S11312D0205541525420696E697469616C697A655C
S10712E06420000082
S9030000FC
