S01700004763634170706C69636174696F6E322E737265635A
S214080000C80800207903080075030800750308006F
S2140800107503080075030800750308000000000053
S2140800200000000000000000000000007503080043
S2140800307503080000000000750308007503080033
S21408004075030800750308007503080075030800A3
S2140800507503080075030800750308007503080093
S214080060550C08007503080000000000750308001A
S21408007075030800690608007503080000000000FC
S21408008000000000750308007503080075030800E3
S2140800907503080075030800750308007503080053
S2140800A075030800000000007503080075030800C3
S2140800B07503080075030800750308007503080033
S2140800C07503080075030800750308007503080023
S2140800D07503080075030800750308007503080013
S2140800E0750308007503080075030800D9020800A0
S2140800F07503080010B5054C237833B9044B13B1C3
S2140801000448AFF300800123237010BD3C04002090
S21408011000000000882908000C4B43B10C4810B5B5
S2140801200C49AFF300800C48036823B910BD0A4891
S214080130036833B97047094B002BF7D0BDE8104069
S2140801401847064B002BF5D0184700BF00000000E4
S21408015088290800400400208829080000000000BC
S214080160F0B45718082FD4BF00230123082998BFD6
S214080170082A5CD80D46002B59D12E4A136823F05E
S2140801800103136013692C4B4FF440745C641C6FB6
S21408019024F003041C6703245C605C66A3F5006314
S2140801A0264CC3F80C41D3F8004144F40064C3F865
S2140801B000415061002419E01E4801F110035B015C
S2140801C0C2180026566000EB41124FF00056C2F8DF
S2140801D008624FF08076C650D2F81C3243F400030B
S2140801E0C2F81C3201238B401C430131B942E3DDBF
S2140801F000230DE00F4901EB43124FF00050C2F800
S214080200080203F1100252014FF040708850013383
S214080210AB42EFDB074B5C604FF40061084A516065
S2140802201A6842F001021A600020F0BC70470120EC
S214080230FBE700BF00400B40000E0E402B100010DE
S21408024000E100E008B502220121014B984708BDED
S214080250610108004B0103F1402303F53023D3F86E
S214080260103213F4000F33D070B44B0103F140235F
S21408027003F53023D3F81442D3F81822D3F80852DB
S214080280C5F38A450580D3F81052C5F30345857033
S214080290002303E0C618F270120A0133AB4205DAEF
S2140802A0032BF7DCC618F470240AF6E7094B01F1AD
S2140802B0100252014FF08070985003EB4111D1F8AC
S2140802C01C3243F40003C1F81C32002070BC70478F
S2140802D00120704700400B4010B584B01F4B1C69C6
S2140802E014F0060F26D014F0020F04D114F0040FF1
S2140802F006D100230AE0012101A8194B9847F8E720
S214080300022101A8164B9847F3E701339DF806200B
S2140803109342FADB9DF80700124B98479DF8093080
S214080320ABB1114A136B43F4804313639DF80A205C
S2140803300E4B1A7014F0010F02D00122074B9A6078
S2140803404FF400620A4BC3F8842104B010BD064A75
S214080350536B43F480435363E8E700BF00400B4009
S21408036055020800810B080000120E4058040020B1
S21408037000E100E0FEE7000008B5114B114A9A427A
S21408038009D00F4B0F4A03E0116819600433043292
S2140803900D498B42F8D30D4B02E000221A60043355
S2140803A00B4A9342F9D30B4B23F0604323F07F03A9
S2140803B0094A9360094B9847094B9847FEE700BFE0
S2140803C000000020882908003C0400203C04002087
S2140803D0C40400200000080000ED00E0892708009B
S2140803E0890608004FF48063204A136002F50072FD
S2140803F013601F4B1B6A13F0807F07D11D4A1C4BE6
S2140804001A621B4B9B6E13F0010FFAD01A4A184B50
S2140804101A62174B9B6E13F4803FFAD0144A136B7C
S21408042023F0030343F001031363114B9B6E13F091
S214080430080FFAD0114A0E4B9A620D4B9B6E13F0BA
S214080440020FFAD011220A4B1A63094B9B6E13F05F
S214080450080FFAD01222064B1A63054B9B6E13F050
S214080460080FFAD0064A074B1A607047000A0E4073
S21408047000060E400908370009083701013F0D201D
S21408048000BD010500000020044B01221A605860D8
S214080490024B1B6813F4803FFAD0704710E000E068
S2140804A0F8B5444AD2F8003143F04003C2F80031A8
S2140804B0414D01232B60414BC5F8E4306B6843F48B
S2140804C080336B604FF0FF33AB6202232B6140F63C
S2140804D0FF732B62136943F480431361384C236817
S2140804E043F400732360236943F400732361236E87
S2140804F043F400732366236B43F400732363236873
S21408050043F480632360236943F480632361236E86
S21408051043F480632366236843F00103236023695A
S21408052043F001032361236E43F001032366236827
S21408053043F004032360236943F004032361236E16
S21408054043F0040323661F4B196841F4FF711960D2
S214080550116941F4005111615A6942F4FF725A61F7
S2140805601A6E42F4FF721A66236843F00203236089
S214080570236943F002032361236E43F002032366D4
S214080580236B43F40073236340F2FF762E62636B9B
S21408059043F4806363630C480C4FB847636B43F0BF
S2140805A0020363630A48B847236B43F002032363D6
S2140805B02E62F8BD00060E4000800C400043414401
S2140805C000140E4000120E40808D5B00890408005F
S2140805D0A08601002DE9F0411E4D6B6B43F0010328
S2140805E06B636B6B43F004036B63DFF878804046FD
S2140805F0194FB847194EF36B1B0203F47E442B6B56
S21408060043F004032B634046B847F36B03F4FF73C9
S21408061023432A6B42F001022A6303F5AD5292B2D5
S21408062041F27C518A4202D9FF20BDE8F0814FF2A0
S214080630EB4293420BD9A3F57443EC3B084880FB86
S2140806400320DB17C3EB600080B2BDE8F081002012
S214080650BDE8F08100140E408904080000120E4020
S214080660E9A28B2EE022020008B50448044B9847FE
S2140806704FF40052034BC3F8802108BDF828080041
S214080680110B080000E100E02DE9F047ADF5976D85
S214080690624B9847624B9847624B98476248634B51
S2140806A098474FF40042624B5A60624C236843F402
S2140806B080532360604A136943F4005313616369E7
S2140806C043F480536361236E43F480532366E36BDD
S2140806D05A4B9847236843F480432360236943F4BE
S2140806E080432361236E43F4804323660024002658
S2140806F0002717E06042524B984702460B460020F8
S2140807004FF080414F4DA84702AB03EBC403C3E943
S214080710000102460B46304639464B4DA84706466A
S2140807200F460134632CE5DD484C0022484B304622
S2140807303946A0470022474B474DA84702460B4676
S21408074000204649A047CDE900014FF0000A55466B
S21408075047E0591ECAAA52F8211042F8231001335E
S214080760632BF6DD3E4B1B781B1ACA9300244FF00A
S21408077000084FF0000914E0CAAB53F82400304BC9
S214080780984702AB03EBC403D3E90023324EB047C5
S21408079002460B46404649462B4EB0478046894699
S2140807A00134632CE8DD00220023404649462D4CE0
S2140807B0A047D0B1DDE9002340464946264CA0476D
S2140807C0294B9847294B1862294A536B43F4806390
S2140807D05363184BDC6B14F4805400D1B5B104B1E4
S2140807E00025244B98470123BAE7DDE90023404655
S2140807F04946194CA0471C4B984740421B4B186269
S2140808001B4A136B43F480631363E2E70AF1010A99
S21408081051461948194B98470125E0E7E5030800B3
S214080820A1040800C90B08001211140045020800AC
S214080830501A0E4000120E4000060E40350B0800F7
S21408084001210800BD0C0800691E0800651E080086
S2140808500000F03F00002040CD2108000000304096
S21408086058040020ED2608002D27080000800C40BC
S21408087000140E40D50508000C290800110B0800C6
S21408088008B5C8B2014B984708BD00BF310C080030
S2140808902DE9F04107460E46151E02DD0A460021E0
S2140808A004E04FF020080EE00131013210780028ED
S2140808B0FAD1A94201DA6D1A00E0002513F0020FFA
S2140808C006D14FF0200813F001040AD0002410E0E7
S2140808D04FF03008F7E7414638460D4B9847013445
S2140808E0013D002DF7DC04E03846094B98470134F3
S2140808F0013631780029F7D105E041463846044BE1
S21408090098470134013D002DF7DC2046BDE8F0810C
S21408091081080800F0B585B007460C9851B11E4608
S2140809200C4613B10A2A12D0002604AD002305F897
S214080930013D18E030238DF8043000238DF805308B
S2140809400B9B0A9A01A938461B4CA04729E00029A8
S21408095001DB0026E9E74C420126E6E7303305F8D6
S214080960013DB4FBF2F44CB1B4FBF2F302FB1343C3
S214080970092BF3DDA0F13A010B44EFE756B10A9BC9
S2140809801BB10B9B13F0020F0DD12D2305F8013C6C
S214080990013D00260B9B0A9A29463846064CA04776
S2140809A0304405B0F0BD2D213846044B98470A9BC5
S2140809B0013B0A93EEE700BF91080800810808008B
S2140809C0F0B589B006460C460592002581E0A21CC3
S2140809D001238BE0013443F002032278302AF9D051
S2140809E0002206E002EB82025000A1F13002024427
S2140809F001342178A1F13000C0B20928F2D9732950
S214080A0018D0642922D078292FD058293CD07529A7
S214080A1049D063295CD10599081D059009788DF899
S214080A201C1000218DF81D1007A93046344FB84712
S214080A3005444DE00599081D0590096821B1304622
S214080A402F4FB847054443E02E49F8E70599081D97
S214080A5005900968612002900193009201230A22FA
S214080A603046294FB847054432E00599081D0590D9
S214080A7009686120029001930092002310223046F4
S214080A80214FB847054423E00599081D05900968D5
S214080A9041200290019300920023102230461A4FFC
S214080AA0B847054414E00599081D059009686120B3
S214080AB002900193009200230A223046124FB8474C
S214080AC0054405E0144621783046104B9847013512
S214080AD00134237863B1252BF5D1621C63783BB1CA
S214080AE0252BEFD02D2B3FF472AF0023144674E766
S214080AF016B1336800221A70284609B0F0BD00BF48
S214080B00910808001C290800150908008108080033
S214080B100FB400B583B004AA52F8041B0192002053
S214080B20034B984703B05DF804EB04B0704700BF6A
S214080B30C10908000F4B4FF400221A675A600E4A84
S214080B40D2F8003143F01003C2F800310B4B2022D4
S214080B509A6040F6FF21196040F20A21C3F8A012F5
S214080B607B21C3F8A4124FF4CD61C3F8AC125A60C7
S214080B70704700BF00120E4000060E4000400940B5
S214080B80622303FB00F00E4B83FB00231A18C317DF
S214080B90C3EBE213DBB24A33DBB2AC2B05D8492BE6
S214080BA008D9084AC2F8A4327047AC22054BC3F8E5
S214080BB0A42270474A22034BC3F8A422704700BFFA
S214080BC08180808000400940164B00221A705A70B7
S214080BD0154B4FF44071596459601A6F186F0240EC
S214080BE022F440721A6759664FF48072A3F50063C0
S214080BF01A6103F50073AC21196040F222211962CC
S214080C004FF40061596040F20221C3F820114FF0FA
S214080C10FF31D960E121996004490A6050221A60C0
S214080C20704700BF5C040020000E0E4000E100E0A4
S214080C30074B5B6913F0020F08D0054BD861044BCD
S214080C405B6913F4007FFAD00020704701207047D4
S214080C5000080E4008B5154B5B6913F0E00F03D08B
S214080C604FF4A871114A116013F0010F12D0104802
S214080C704278531C594203F03F0301F03F0158BF26
S214080C804B4201788B4206D00849886908490A44CD
S214080C9090704B7008BD0748074B9847044B597827
S214080CA0024A92690B449A7008BD00BF00080E40BD
S214080CB05C04002024290800110B08002DE9F04FD9
S214080CC08DB006460F4614461D4600F099F9DFF823
S214080CD02093CDE9000199F90080B8F1FF3F36D09E
S214080CE022462B462046294601F00AFD834670BB5D
S214080CF032463B463046394601F002FD8246002819
S214080D0040F0AB80304639460022002301F0C6FC8E
S214080D1010B3002200232046294601F0BFFC834674
S214080D20002852D0012200200021AC4BCDF828A084
S214080D30CDE90467CDE90645CDE90801029203939B
S214080D40B8F1000F74D00023A54CCDE90034DDE9D6
S214080D5000010DB0BDE8F08FDDE9000100F066FF88
S214080D608046002800F09680DDE900014FF0000A72
S214080D704FF0000B52465B4601F090FC0028E6D088
S214080D803046394600F052FF0028E0D02046294673
S214080D9000F04CFF0028DAD00420002199F9003032
S214080DA08E4A022BCDE90467CDE90645CDE908ABA6
S214080DB002900A91039203D002A800F03DFF60BBA0
S214080DC001F0DCFC2223036027E02046294600F0D9
S214080DD02DFF0028BBD0002200232046294601F01C
S214080DE067FC0028B3D001217C4A99F90030CDF879
S214080DF028B0CDE90467CDE9064502910392002B99
S214080E0000F09E8000207749022BCDE9080140F0CB
S214080E109B8001F0B3FC212303600A9B1BB101F001
S214080E20ADFC0A9B0360DDE90834CDE900348EE7A3
S214080E3002A800F001FF00287DD00A9B002BF2D004
S214080E4001F09CFCDDE90834CDE900340A9B036018
S214080E50DDE900010DB0BDE8F08F00220023204632
S214080E60294601F01BFC00283FF471AF0120002240
S214080E705B4B5A49B8F1020FCDF828B0CDE90467A4
S214080E80CDE906450290CDE908230391D0D1CDE9F6
S214080E9000235CE73046394600F0C8FE00283FF4D9
S214080EA063AF2046294600F0C1FE00283FF45CAF39
S214080EB0DDE900231046194601F022FC002870D10F
S214080EC00322464B99F900800A90CDE90467CDE9DC
S214080ED0064502920393B8F1000F3CD14FF0604AE2
S214080EE0DFF810B10022002330463946CDE908ABBA
S214080EF001F0DEFB00283FF45FAF00223A4B2046A5
S214080F00294601F063F904460D4600F09DFE0246A8
S214080F100B462046294601F0C1FB00283ED14FF07B
S214080F206042324B99F90080CDE90823B8F1020FE8
S214080F307FF442AF44E701F021FC212303607CE7FD
S214080F4000230024CDE9083402A800F075FE002826
S214080F507FF463AF5DE74FF0000ADFF89CB000222D
S214080F60002330463946CDE908AB01F0A1FB00283E
S214080F70DCD000221C4B2046294601F027F90446FF
S214080F800D4600F061FE02460B462046294601F053
S214080F9085FB18B90022134BCDE9082399F9008080
S214080FA0C4E701220D4B99F90090CDF82880CDE9C9
S214080FB00467CDE9064502920393B9F1000FBFD046
S214080FC0002200231046194601F02AFAB9F1020F4A
S214080FD0CDE908013FF41DAFB6E700BF4429080075
S214080FE00000F03F0000F0FF0000E03FFFFFEFC703
S214080FF004000020FFFFEF470000F07F000000001D
S2140810002DE9F04F23F0004757EA020493B037D093
S2140810106B4C21F00046A64283460D4629DC9A46CC
S214081020964625D0A74224DC654CA7427BD0002DE7
S21408103089468046CDE9002379DB0024BEF1000FFF
S2140810402ED15F4B9F4200F08E805E4B9F4263D04E
S214081050BAF1804F00F0C8835B4B9A4520D1002D2B
S2140810601EDB4046494613B0BDE8F04F00F01EBDF3
S21408107068B106F1404606F5801656EA0B0308D115
S2140810800023504C1846214613B0BDE8F08FB742EF
S214081090CADD4E4813B0BDE8F04F00F0CFBD0024BF
S2140810A04046494600F0BEFDBBF1000F19D126B1F7
S2140810B0444B25F040429A4213D1BAF1000FC0F2D1
S2140810C0C983002DE0DA06F1404606F5801656EA92
S2140810D0040300F09D84012CD6D101F10043194683
S2140810E0D2E7ED0F013D54EA050351D0384B9F4235
S2140810F074DD03F104739F4240F3F683354B9E423A
S21408110051DDBAF1000F51DD2BA3D3E900231046B9
S214081110194601F05BF8B7E7BAF1000FC0F24A8447
S21408112040464946B0E7BEF1000F80D0A1E72A4BFB
S2140811309F422BDCA3F154739F427FF77EAF3B158B
S214081140A3F2FF33142B40F34B84C3F134032EFA77
S21408115003F202FA03F39E457FF46FAF02F0010232
S214081160C2F102046AE706F1404303F5801353EA26
S2140811700B0385D0174B9E4240F33D83BAF1000F10
S21408118014DBDDE90034184621467DE7022455E7DE
S21408119042464B464046494600F064FE02460B4629
S2140811A001F03EF970E7BAF1000FADDB002300242A
S2140811B01846214668E700BF9C7500883CE4377EE1
S2140811C00000F07F0000F03F0000E03F48290800DC
S2140811D00000E041FFFFEF3FFFFF3F43B6F5801FEB
S2140811E04FF0000205DACE4B00F0F0FF6FF0340245
S2140811F00E46DFF83CE33315C6F31306A3F2FF33B7
S21408120046F07F57764503EB020A47F4401740F34B
S2140812102883C44B9E4240F3058400220023CDE970
S2140812200823CDE90C2300220026BF4B0AF1010A49
S214081230CDE90623A7F580173946DDE90623CDE96B
S2140812400A0100F00FFEDDE9062380468946DDE93F
S2140812500A0100F009FE02460B460020B24901F0DA
S214081260DFF80A4601461346CDE90E1202464946FD
S214081270404600F0ABFF0A46014600204FF0000B40
S2140812807B1043F0005303F50023CDE904129919A7
S2140812900F4606469446584611463B463246CDE922
S2140812A010BCCDE9020100F091FF02460B4640460D
S2140812B0494600F0D7FDDDE90623804689463046D4
S2140812C0394600F0CFFD02460B46DDE90A0100F07C
S2140812D0C9FDDDE9022300F079FF02460B464046C9
S2140812E0494600F0BFFDDDE90E2300F06FFFDDE99B
S2140812F00478CDE906013A4643463846414600F0AA
S21408130065FF75A3D3E9002306460F4600F05EFF87
S21408131073A3D3E9002300F0A7FD32463B4600F04E
S21408132055FF71A3D3E9002300F09EFD32463B46E5
S21408133000F04CFF6EA3D3E9002300F095FD32467B
S2140813403B4600F043FF6CA3D3E9002300F08CFD76
S21408135032463B4600F03AFF69A3D3E9002300F083
S21408136083FD3246804689463B463046394600F07D
S2140813702DFF02460B464046494600F027FFDDE9AA
S214081380022306460F46DDE9040100F06DFDDDE99F
S214081390062300F01BFF32463B4600F065FDDDE9FC
S2140813A002678046894632463B463046394600F054
S2140813B00DFF00225D4BCDE90A0100F055FD4246BF
S2140813C04B4600F051FDDDE910BC0F46DDE9020191
S2140813D05A463B46CDE90EBC5E4600F0F7FE0022B4
S2140813E0CDE90201514B3046394600F03BFDDDE9B8
S2140813F00A2300F037FD02460B464046494600F0F1
S21408140031FDDDE9042300F0E1FE324680468946D8
S214081410DDE906013B4600F0D9FE02460B4640468B
S214081420494600F021FD8046894602460B46DDE91E
S214081430020100F019FDDDE90EBC33A3D3E9002351
S2140814405846CDE906BC5E460F4600F0BFFEDDE90D
S2140814500223CDE904013046394600F003FD024672
S2140814600B464046494600F0FDFC29A3D3E9002375
S21408147000F0ACFE28A3D3E9002380468946304610
S214081480394600F0A3FE02460B464046494600F0A1
S214081490EBFCDDE90C2300F0E7FC80465046894665
S2140814A000F02EFE06460F46DDE9040142464B468E
S2140814B000F0DAFCDDE9082300F0D6FC32463B46AD
S2140814C000F0D2FCDDE906BC324658463B46DA4612
S2140814D08B4600F0C7FC2DE0EF4E454A287ECA3FF3
S2140814E065DBC9934A86CD3F01411DA96074D13F8B
S2140814F04D268F515555D53FFFAB6FDBB66DDB3F9D
S214081500033333333333E33F000000E009C7EE3FCD
S214081510FD033ADC09C7EE3FF5015B14E02F3EBE3B
S2140815200000404379B60B000000F03F000008407A
S2140815308E980300DDE9082300F094FCDDE9042317
S21408154000F090FC02460B464046494600F08AFCEE
S21408155080468946DDE90012013C54EA05034FF04F
S214081560000314BFDA4CDB4C0846CDE904340B46BE
S2140815701446CDE9023400230293DDE902451146FC
S2140815802B46224600F06EFC52465B4600F01EFED6
S214081590DDE9002306460F464046494600F016FE9B
S2140815A002460B463046394600F05EFC80468946C1
S2140815B022462B4650465946CDE9008900F006FEDD
S2140815C00B46024606460F464046494600F04CFC87
S2140815D0C14B044699420D468A4640F3178101F1ED
S2140815E03F4303F5E003034340F0EC81A4A3D3E9AB
S2140815F00023DDE9000100F037FC324680468946C4
S2140816003B462046294600F02DFC02460B4640463F
S214081610494601F06BF8002840F0D481A8464FF4FC
S214081620801200204FEA2853A3F2FE3342FA03F34F
S2140816305344C3F30A52A94DA2F2FF321541C3F32D
S214081640130423EA0501C2F1140B44F48014BAF11A
S214081650000F02460B4644FA0BFB30463946B8BF25
S214081660CBF1000B00F0FEFB02460B4606460F4683
S214081670DDE9000100F0F8FB0D464FEA0B5A00249E
S21408168081A3D3E900232046294600F09FFD324671
S214081690804689463B462046294600F0E3FB02463C
S2140816A00B46DDE9000100F0DDFB79A3D3E9002352
S2140816B000F08CFD78A3D3E9002306460F462046A3
S2140816C0294600F083FD02460B463046394600F0B0
S2140816D0CBFB06460F4602460B464046494600F0F8
S2140816E0C3FB42464B4604460D4600F0BBFB02468B
S2140816F00B463046394600F0B5FB224680468946FA
S2140817002B462046294600F061FD65A3D3E9002351
S21408171006460F4600F05AFD63A3D3E9002300F0FF
S214081720A1FB32463B4600F051FD61A3D3E90023F6
S21408173000F09AFB32463B4600F048FD5EA3D3E92C
S214081740002300F08FFB32463B4600F03FFD5CA3CB
S214081750D3E9002300F088FB32463B4600F036FD0E
S21408176002460B462046294600F07CFB06460F46F6
S21408177002460B462046294600F028FD0022CDE901
S21408178000014FF080433046394600F06BFB0246B6
S2140817900B46DDE9000100F043FE424606460F46CA
S2140817A04B462046294600F011FD42464B4600F0BF
S2140817B05BFB02460B463046394600F053FB224692
S2140817C02B4600F04FFB02460B460020404900F02F
S2140817D049FB8A44BAF5801FC0F236815146DDE9D6
S2140817E0042300F0F3FC4FE4424640464B46494685
S2140817F000F0ECFC48E4BAF1000FBFF6D7ACDDE920
S2140818000034184604F1004319463DE4344B21F0F1
S2140818100048984540F3F380324B0B4403430CD101
S21408182032463B4600F01EFB02460B46DDE9000149
S21408183000F048FF00283FF4F2AE23A3D3E90023C4
S214081840DDE9040100F0C2FC1FA3D3E9002300F081
S214081850BDFC19E402460B4600201D4900F0E0FDD9
S2140818602FE400220023CDE90823CDE90C2300222B
S214081870174B0026CDE90623DEE400BFAFF3008051
S214081880FE822B654715973C00000000432EE63F76
S214081890EF39FAFE422EE63F396CA80C615C20BE92
S2140818A0D0A4BE726937663EF16BD2C541BDBB3E59
S2140818B02CDE25AF6A56113F93BDBE166CC1663F37
S2140818C03E5555555555C53F59F3F8C21F6EA501E7
S2140818D00000F03F0000F0BFFFFF8F40FFFF0F0043
S2140818E0FFCB904000346F3F6B4B9E427FF75BAC5C
S2140818F06A4B9E423FF705AC0022684B00F0B2FAEE
S21408190057A3D3E9002306460F4600F05FFC56A30C
S214081910D3E90023804689463046394600F056FC0F
S214081920002282468B465E4B3046394600F04EFC17
S21408193002460B464EA1D1E9000100F093FA324662
S2140819403B4600F043FC02460B460020554900F093
S21408195089FA3246CDE902013B463046394600F060
S21408196035FC02460B46DDE9020100F02FFC42A3D7
S214081970D3E9002300F02AFC02460B465046594697
S21408198000F070FA02460B4606460F4640464946A1
S21408199000F06AFA002042464B4682468B4600F024
S2140819A061FA02460B463046394600F05BFA804636
S2140819B08946CFE542464B460020384900F030FDC0
S2140819C0FFF762BB2EA3D3E90023DDE9040100F08C
S2140819D0FDFB2BA3D3E9002300F0F8FBFFF754BB6D
S2140819E0BEF1000F7FF45BABC3F1140347FA03F2B2
S2140819F002FA03F39F422BD07446FFF726BB294B07
S214081A0098453FF70CAEDDE902239246934636E644
S214081A1002460B4600F026FA02460B4600F000FD8A
S214081A20FFF732BB18A3D3E90023CDE9082318A390
S214081A30D3E90023CDE90C2300221B4B4FF4802664
S214081A40CDE90623FFF7F8BB5A4600F08DF9C6E63F
S214081A5002F00102C2F10204FFF7F7BAAFF3008002
S214081A60000000604715F73F44DF5DF80BAE543EB4
S214081A70555555555555D53FFE822B654715F73FA5
S214081A809C7500883CE4377E0000004003B8E23FBF
S214081A9006D0CF43EBFD4C3EFEFFEF3F0000F03F85
S214081AA00000D03F0000E03F0000F83F2DE9F84373
S214081AB05B4F05468F430C4600F0928000290B4684
S214081AC002466FDD0F157BD0A7F2FF37C3F313036B
S214081AD0F80743F480135CD400261620B6464FF465
S214081AE0001103EBD2747F10234452000EEB01045E
S214081AF09C424FEAD2754FEA420203DC1B1B04EBFA
S214081B00010E0E44013805EB43034FEA5101EDD1AF
S214081B10202484464FF0004109E020D003EBD2751C
S214081B20013C4FEA51012B444FEA420220D073454C
S214081B3001EB0C05F1DD002D05EB010C09DBF04689
S214081B409542A3EB0E0300D9013BC646521B084438
S214081B50E4E7BCF1000FF2DB0EF10108F0E795426E
S214081B60DCD8002D05EB010C44DB98460023ECE797
S214081B70134313D14008731003F17F5303F5001382
S214081B8003EB07594946F20748BF40F00040BDE856
S214081B90F8835B0003EBD27352009DE7411C2DD0FF
S214081BA00130E7E7064621F000473E43EFD069BB21
S214081BB00F46D30A153F5205002BFAD0DE0220D472
S214081BC0002400E004465B00DD0204F10100F9D5BC
S214081BD0C0F1200122FA01F10B433F1B824073E754
S214081BE002460B4600F0F2FA2A46234600F03CF975
S214081BF0BDE8F883BCF1000FAEDAB6E7013620463A
S214081C00B9E7002020214FF0FF34E3E702460B46F1
S214081C1000F028F902460B4600F002FCB7E700BFC2
S214081C200000F07F21F00041704700BF41F00041FE
S214081C3001F58010C00F704700207047002001494A
S214081C40704700BF0000F87FF0B5C1F30A5EAEF239
S214081C50FF36132E83B002460B460C464FEAD17564
S214081C6007462DDC002E48DB3C49314103EA0100DB
S214081C7010432AD049080B4053EA02070BD04FF40A
S214081C808023132E0CBF4FF00047002724EA0101DB
S214081C9043FA06F40C43324B214603EBC505D5E957
S214081CA00045384622462B4600F0DEF8CDE900010E
S214081CB0DDE9000122462B4600F0D4F803B0F0BD5B
S214081CC0332E06DDB6F5806F44D01046194603B0AD
S214081CD0F0BD4FF0FF31AEF2134E21FA0EF1084276
S214081CE0F3D049080842D6D04FF0804320EA0101D5
S214081CF043FA0EFE4EEA0107CDE721F00041014304
S214081D001946E4D0C3F3130343EA000CCCF10003EE
S214081D1043EA0C03640C1B0B03F40023640443EA35
S214081D2004010F4B03EBC503D3E9006732463B4675
S214081D3000F09AF8CDE90001DDE9000132463B469D
S214081D4000F090F8024621F0004141EAC5731046BB
S214081D501946BCE700F088F8B9E700BFFFFF0F0098
S214081D605029080000000000F8B5C1F30A560446DA
S214081D700D460B4617460EBB21F000430343864626
S214081D8025D000222E4B00F021FA2E4A0446974210
S214081D900D460B462ADBC1F30A56363E40F2FE7263
S214081DA03E44964228DC002E12DD23F0FF4323F43F
S214081DB0E00343EA065520462946F8BD40F2FF727E
S214081DC09642EBD102460B4600F04EF8F8BDF8BD39
S214081DD016F1350F1DDA4CF250339F420CDC14A175
S214081DE0D1E9000122462B4600F030F810A3D3E9CB
S214081DF0002300F0EBF9F8BD22460FA1D1E9000157
S214081E002B4600F023F80CA3D3E9002300F0DEF9F4
S214081E10F8BD23F0FF4323F4E003363643EA0655BD
S214081E20204629460022084B00F0D0F9F8BD00BF2E
S214081E3059F3F8C21F6EA5019C7500883CE4377EEE
S214081E4000005043B03CFFFF0000903C03F0004306
S214081E5021F0004242EA0301704700BF81F00041CA
S214081E6002E000BF83F0004330B54FEA41044FEA72
S214081E70430594EA050F08BF90EA020F1FBF54EA0D
S214081E80000C55EA020C7FEA645C7FEA655C00F0A9
S214081E90E2804FEA5454D4EB5555B8BF6D420CDD7A
S214081EA02C4480EA020281EA030382EA000083EAFD
S214081EB0010180EA020281EA0303362D88BF30BD9D
S214081EC011F0004F4FEA01314FF4801C4CEA1131F3
S214081ED002D0404261EB410113F0004F4FEA033352
S214081EE04CEA133302D0524263EB430394EA050FDD
S214081EF000F0A780A4F10104D5F1200E0DDB02FA4C
S214081F000EFC22FA05F2801841F1000103FA0EF2DF
S214081F10801843FA05F359410EE0A5F120050EF1A5
S214081F20200E012A03FA0EFC28BF4CF0020C43FAD6
S214081F3005F3C01851EBE37101F0004507D54FF0E3
S214081F40000EDCF1000C7EEB00006EEB0101B1F533
S214081F50801F1BD3B1F5001F0CD349085FEA300079
S214081F604FEA3C0C04F101044FEA445212F5800F84
S214081F7080F09A80BCF1004F08BF5FEA500C50F121
S214081F80000041EB045141EA050130BD5FEA4C0C04
S214081F90404141EB010111F4801FA4F10104E9D18D
S214081FA091F0000F04BF01460020B1FA81F308BF84
S214081FB02033A3F10B03B3F120020CDA0C3208DD50
S214081FC002F1140CC2F10C0201FA0CF021FA02F12B
S214081FD00CE002F11402D8BFC2F1200C01FA02F19B
S214081FE020FA0CFCDCBF41EA0C019040E41AA2BFC0
S214081FF001EB0451294330BD6FEA04041F3C1CDA88
S2140820000C340EDC04F11404C4F1200220FA04F0A7
S21408201001FA02F340EA030021FA04F345EA030151
S21408202030BDC4F10C04C4F1200220FA02F001FA13
S21408203004F340EA0300294630BD21FA04F0294695
S21408204030BD94F0000F83F4801306BF81F480112E
S2140820500134013D4EE77FEA645C18BF7FEA655CA1
S21408206029D094EA050F08BF90EA020F05D054EA73
S214082070000C04BF1946104630BD91EA030F1EBF78
S2140820800021002030BD5FEA545C05D1400049417C
S21408209028BF41F0004130BD14F580043CBF01F56F
S2140820A0801130BD01F0004545F0FE4141F4700155
S2140820B04FF0000030BD7FEA645C1ABF1946104630
S2140820C07FEA655C1CBF0B46024650EA013406BF31
S2140820D052EA033591EA030F41F4002130BD00BFF0
S2140820E090F0000F04BF0021704730B54FF48064AD
S2140820F004F132044FF000054FF0000150E700BF2E
S21408210090F0000F04BF0021704730B54FF480648C
S21408211004F1320410F0004548BF40424FF0000179
S2140821203EE700BF42004FEAE2014FEA31014FEABC
S21408213002701FBF12F07F4393F07F4F81F060510B
S214082140704792F0000F14BF93F07F4F704730B57A
S2140821504FF4607401F0004521F0004120E700BF0D
S21408216050EA010208BF704730B54FF000050AE094
S21408217050EA010208BF704730B511F0004502D595
S214082180404261EB41014FF4806404F132045FEA97
S214082190915C3FF4DCAE4FF003025FEADC0C18BF3C
S2140821A003325FEADC0C18BF033202EBDC02C2F132
S2140821B0200300FA03FC20FA02F001FA03FE40EAC4
S2140821C00E0021FA02F11444C1E600BF70B54FF0C4
S2140821D0FF0C4CF4E06C1CEA11541DBF1CEA1355A6
S2140821E094EA0C0F95EA0C0F00F0DEF82C4481EA0E
S2140821F0030621EA4C5123EA4C5350EA013518BF2E
S21408220052EA033541F4801143F4801338D0A0FB1A
S21408221002CE4FF00005E1FB02E506F00042E0FBC7
S21408222003E54FF00006E1FB03569CF0000F18BFCD
S2140822304EF0010EA4F1FF04B6F5007F64F5407475
S21408224004D25FEA4E0E6D4146EB060642EAC62108
S21408225041EA55514FEAC52040EA5E504FEACE2E75
S214082260B4F1FD0C88BFBCF5E06F1ED8BEF1004F78
S21408227008BF5FEA500E50F1000041EB045170BDF4
S21408228006F0004646EA010140EA020081EA030138
S214082290B4EB5C04C2BFD4EB0C0541EA045170BD34
S2140822A041F480114FF0000E013C00F3AB8014F1AE
S2140822B0360FDEBF002001F0004170BDC4F10004F7
S2140822C0203C35DA0C341BDC04F11404C4F1200578
S2140822D000FA05F320FA04F001FA05F240EA0200D3
S2140822E001F0004221F0004110EBD37021FA04F609
S2140822F042EB06015EEA430E08BF20EAD37070BDC3
S214082300C4F10C04C4F1200500FA04F320FA05F021
S21408231001FA04F240EA020001F0004110EBD37023
S21408232041F100015EEA430E08BF20EAD37070BD93
S214082330C4F1200500FA05F24EEA020E20FA04F36C
S21408234001FA05F243EA020321FA04F001F000411B
S21408235021FA04F220EA020000EBD3705EEA430E8C
S21408236008BF20EAD37070BD94F0000F0FD101F0BB
S2140823700046400041EB010111F4801F08BF013CF4
S214082380F7D041EA060195F0000F18BF704703F032
S2140823900046520043EB030313F4801F08BF013DB9
S2140823A0F7D043EA0603704794EA0C0F0CEA135575
S2140823B018BF95EA0C0F0CD050EA410618BF52EA2F
S2140823C04306D1D181EA030101F000414FF0000035
S2140823D070BD50EA410606BF1046194652EA430643
S2140823E019D094EA0C0F02D150EA013613D195EAB7
S2140823F00C0F05D152EA03361CBF104619460AD1FF
S21408240081EA030101F0004141F0FE4141F4700108
S2140824104FF0000070BD41F0FE4141F4780170BDF8
S21408242070B54FF0FF0C4CF4E06C1CEA11541DBF5D
S2140824301CEA135594EA0C0F95EA0C0F00F0A7F85F
S214082440A4EB050481EA030E52EA03354FEA01318C
S21408245000F088804FEA03334FF0805545EA13139F
S21408246043EA12634FEA022245EA111545EA106567
S2140824704FEA00260EF000419D4208BF964244F1FE
S214082480FD0404F5407402D25B084FEA3202B61A1D
S21408249065EB03055B084FEA32024FF480104FF4F1
S2140824A0002CB6EB020E75EB030E22BFB61A754665
S2140824B040EA0C005B084FEA3202B6EB020E75EBF8
S2140824C0030E22BFB61A754640EA5C005B084FEA60
S2140824D03202B6EB020E75EB030E22BFB61A75462D
S2140824E040EA9C005B084FEA3202B6EB020E75EB38
S2140824F0030E22BFB61A754640EADC0055EA060EF9
S21408250018D04FEA051545EA16754FEA06164FEA3B
S214082510C30343EA52734FEAC2025FEA1C1CC0D1E7
S21408252011F4801F0BD141EA00014FF000004FF074
S214082530004CB6E711F4801F04BF01430020B4F135
S214082540FD0C88BFBCF5E06F3FF6AFAEB5EB030CED
S21408255004BFB6EB020C5FEA500C50F1000041EBEA
S214082560045170BD0EF0004E4EEA113114EB5C04B7
S214082570C2BFD4EB0C0541EA045170BD41F480118A
S2140825804FF0000E013C90E645EA060E8DE60CEA92
S214082590135594EA0C0F08BF95EA0C0F3FF43BAFAF
S2140825A094EA0C0F0AD150EA01347FF434AF95EA66
S2140825B00C0F7FF425AF104619462CE795EA0C0F4A
S2140825C006D152EA03353FF4FDAE1046194622E717
S2140825D050EA410618BF52EA43067FF4C5AE50EAF1
S2140825E041047FF40DAF52EA43057FF4EBAE12E7E1
S2140825F04FF0FF3C06E000BF4FF0010C02E000BFC2
S2140826004FF0010C4DF804CD4FEA410C7FEA6C5CA4
S2140826104FEA430C18BF7FEA6C5C1BD001B050EA47
S214082620410C0CBF52EA430C91EA030F02BF90EA32
S214082630020F0020704710F1000F91EA030F58BFF1
S214082640994208BF90422CBFD8176FEAE37040F053
S214082650010070474FEA410C7FEA6C5C02D150EAF1
S214082660013C07D14FEA430C7FEA6C5CD6D152EAAC
S214082670033CD3D05DF8040B704700BF8446104671
S21408268062468C461946634600E000BF01B5FFF770
S214082690B7FF002848BF10F1000F01BD4DF808ED40
S2140826A0FFF7F4FF0CBF012000205DF808FB00BF11
S2140826B04DF808EDFFF7EAFF34BF012000205DF86B
S2140826C008FB00BF4DF808EDFFF7E0FF94BF0120B8
S2140826D000205DF808FB00BF4DF808EDFFF7CEFFB9
S2140826E094BF012000205DF808FB00BF4DF808EDF8
S2140826F0FFF7C4FF34BF012000205DF808FB00BFC9
S2140827004FEA410C7FEA6C5C02D150EA013C0AD1E0
S2140827104FEA430C7FEA6C5C02D152EA033C02D1D2
S2140827204FF0000070474FF0010070474FEA410233
S21408273012F5001215D211D56FF47873B3EB625206
S21408274012D94FEAC12343F0004343EA505311F02D
S214082750004F23FA02F018BF404270474FF00000BF
S214082760704750EA013005D111F0004008BF6FF0FD
S214082770004070474FF00000704700BF014B1868D4
S214082780704700BF0800002070B50F4E0F4D761B2F
S214082790B61018BF002405D0013455F8043B9847F6
S2140827A0A642F9D10A4E0B4D00F0DCF8761BB6109F
S2140827B018BF002406D0013455F8043B9847A642B3
S2140827C0F9D170BD70BD00BF7029080070290800D7
S2140827D07829080070290800024B13B1024800F057
S2140827E005B8704700000000F927080000230146D6
S2140827F01A46184600F01EB838B50A4C0A4D641B2F
S214082800A4100AD004F18043013B05EB8305013C84
S21408281055F804399847002CF9D1BDE8384000F03F
S214082820ABB800BF8829080084290800704700BF95
S214082830704700BF2DE9F8432C4D06462868984691
S2140828400F469146FFF7F2FF294B1C68D4F848312B
S214082850002B3ED05A681F2A1CDC02F1010E76B106
S214082860012103EB8204C4F88890D3F888019140CC
S2140828700843022EC3F88801C4F8088123D0023220
S214082880C3F804E0286843F82270FFF7D1FF002059
S214082890BDE8F883174B0BB34FF4C870AFF300804E
S2140828A00346D8B10020D4F848114FF0010E5860FE
S2140828B019600246C4F84831C3F88801C3F88C0189
S2140828C0002EDCD0CCE7D3F88C010143C3F88C117A
S2140828D0D5E704F5A673C4F84831BBE72868FFF7C0
S2140828E0A7FF4FF0FF30BDE8F88300BF380400208C
S2140828F0602908000000000070696E20696E746523
S214082900727275707465643A200A0D00636F756E8E
S2140829107465722069732025640A0D00286E756C2C
S2140829206C2900004552523A2055415254205258BC
S214082930206275666665722069732066756C6C0A17
S2140829400D000000706F7700000000000000000017
S214082950000000000000304300000000000030C304
S21408296010000020F8B500BFF8BC08BC9E467047AB
S214082970D927080019010800F8B500BFF8BC08BC3C
S20C0829809E467047F5000800AA
S21408298800093D00010000001000002000000000BB
S21408299800000000FC02002064030020CC0300208E
S2140829A80000000000000000000000000000000012
S2140829B80000000000000000000000000000000002
S2140829C800000000000000000000000000000000F2
S2140829D800000000000000000000000000000000E2
S2140829E800000000000000000000000000000000D2
S2140829F800000000000000000000000000000000C2
S214082A0800000000000000000000000000000000B1
S214082A1800000000000000000000000000000000A1
S214082A280000000000000000000000000000000091
S214082A380000000000000000010000000000000080
S214082A480E33CDAB34126DE6ECDE05000B00000045
S214082A580000000000000000000000000000000061
S214082A680000000000000000000000000000000051
S214082A780000000000000000000000000000000041
S214082A880000000000000000000000000000000031
S210082DB80000000000000000A00400203E
S804080000F3
